{
  "contractName": "Main",
  "abi": [
    {
      "inputs": [
        {
          "internalType": "address",
          "name": "_p2pContractAddress",
          "type": "address"
        }
      ],
      "stateMutability": "nonpayable",
      "type": "constructor"
    },
    {
      "inputs": [
        {
          "internalType": "address",
          "name": "prosumer",
          "type": "address"
        }
      ],
      "name": "isRegistered",
      "outputs": [
        {
          "internalType": "bool",
          "name": "",
          "type": "bool"
        }
      ],
      "stateMutability": "view",
      "type": "function"
    },
    {
      "inputs": [
        {
          "internalType": "address",
          "name": "prosumer",
          "type": "address"
        },
        {
          "internalType": "uint256",
          "name": "amount",
          "type": "uint256"
        }
      ],
      "name": "hasSufficientBalance",
      "outputs": [
        {
          "internalType": "bool",
          "name": "",
          "type": "bool"
        }
      ],
      "stateMutability": "view",
      "type": "function"
    },
    {
      "inputs": [],
      "name": "registerProsumer",
      "outputs": [],
      "stateMutability": "nonpayable",
      "type": "function"
    },
    {
      "inputs": [],
      "name": "depositEthers",
      "outputs": [],
      "stateMutability": "payable",
      "type": "function"
    },
    {
      "inputs": [
        {
          "internalType": "uint256",
          "name": "amount",
          "type": "uint256"
        },
        {
          "internalType": "bool",
          "name": "isBuyer",
          "type": "bool"
        }
      ],
      "name": "sendEnergyRequest",
      "outputs": [],
      "stateMutability": "nonpayable",
      "type": "function"
    },
    {
      "inputs": [
        {
          "internalType": "address",
          "name": "prosumer",
          "type": "address"
        }
      ],
      "name": "getEnergyStatus",
      "outputs": [
        {
          "internalType": "uint256",
          "name": "",
          "type": "uint256"
        }
      ],
      "stateMutability": "view",
      "type": "function"
    },
    {
      "inputs": [
        {
          "internalType": "address",
          "name": "prosumer",
          "type": "address"
        }
      ],
      "name": "getBalance",
      "outputs": [
        {
          "internalType": "uint256",
          "name": "",
          "type": "uint256"
        }
      ],
      "stateMutability": "view",
      "type": "function"
    },
    {
      "inputs": [],
      "name": "withdrawEthers",
      "outputs": [],
      "stateMutability": "nonpayable",
      "type": "function"
    },
    {
      "inputs": [
        {
          "internalType": "uint256",
          "name": "price",
          "type": "uint256"
        }
      ],
      "name": "setEnergyPrice",
      "outputs": [],
      "stateMutability": "nonpayable",
      "type": "function"
    }
  ],
  "bytecode": "0x608060405234801561001057600080fd5b50604051610d33380380610d33833981810160405281019061003291906100db565b806000806101000a81548173ffffffffffffffffffffffffffffffffffffffff021916908373ffffffffffffffffffffffffffffffffffffffff16021790555050610108565b600080fd5b600073ffffffffffffffffffffffffffffffffffffffff82169050919050565b60006100a88261007d565b9050919050565b6100b88161009d565b81146100c357600080fd5b50565b6000815190506100d5816100af565b92915050565b6000602082840312156100f1576100f0610078565b5b60006100ff848285016100c6565b91505092915050565b610c1c806101176000396000f3fe6080604052600436106100865760003560e01c8063d5395d2b11610059578063d5395d2b14610133578063de453fe714610170578063ecc18f9914610199578063f477a6b7146101c2578063f8b2cb4f146101cc57610086565b8063687e6f441461008b5780636cccde67146100a2578063a3818880146100df578063c3c5a547146100f6575b600080fd5b34801561009757600080fd5b506100a0610209565b005b3480156100ae57600080fd5b506100c960048036038101906100c491906108cc565b6102b3565b6040516100d69190610912565b60405180910390f35b3480156100eb57600080fd5b506100f4610357565b005b34801561010257600080fd5b5061011d600480360381019061011891906108cc565b6103f8565b60405161012a9190610948565b60405180910390f35b34801561013f57600080fd5b5061015a6004803603810190610155919061098f565b61049c565b6040516101679190610948565b60405180910390f35b34801561017c57600080fd5b50610197600480360381019061019291906109fb565b610543565b005b3480156101a557600080fd5b506101c060048036038101906101bb9190610a3b565b610690565b005b6101ca610730565b005b3480156101d857600080fd5b506101f360048036038101906101ee91906108cc565b6107c5565b6040516102009190610912565b60405180910390f35b610212336103f8565b61021b57600080fd5b6000610226336102b3565b101561023157600080fd5b60008054906101000a900473ffffffffffffffffffffffffffffffffffffffff1673ffffffffffffffffffffffffffffffffffffffff16633ccfd60b6040518163ffffffff1660e01b8152600401600060405180830381600087803b15801561029957600080fd5b505af11580156102ad573d6000803e3d6000fd5b50505050565b60008060009054906101000a900473ffffffffffffffffffffffffffffffffffffffff1673ffffffffffffffffffffffffffffffffffffffff16636cccde67836040518263ffffffff1660e01b815260040161030f9190610a77565b602060405180830381865afa15801561032c573d6000803e3d6000fd5b505050506040513d601f19601f820116820180604052508101906103509190610aa7565b9050919050565b610360336103f8565b1561036a57600080fd5b60008054906101000a900473ffffffffffffffffffffffffffffffffffffffff1673ffffffffffffffffffffffffffffffffffffffff1663744a753d60006040518263ffffffff1660e01b81526004016103c49190610b76565b600060405180830381600087803b1580156103de57600080fd5b505af11580156103f2573d6000803e3d6000fd5b50505050565b60008060009054906101000a900473ffffffffffffffffffffffffffffffffffffffff1673ffffffffffffffffffffffffffffffffffffffff166329de4d78836040518263ffffffff1660e01b81526004016104549190610a77565b602060405180830381865afa158015610471573d6000803e3d6000fd5b505050506040513d601f19601f820116820180604052508101906104959190610bb9565b9050919050565b60008160008054906101000a900473ffffffffffffffffffffffffffffffffffffffff1673ffffffffffffffffffffffffffffffffffffffff1663f8b2cb4f856040518263ffffffff1660e01b81526004016104f89190610a77565b602060405180830381865afa158015610515573d6000803e3d6000fd5b505050506040513d601f19601f820116820180604052508101906105399190610aa7565b1015905092915050565b61054c336103f8565b61055557600080fd5b81610560338261049c565b61056957600080fd5b81156105ff5760008054906101000a900473ffffffffffffffffffffffffffffffffffffffff1673ffffffffffffffffffffffffffffffffffffffff1663bc8a251f846040518263ffffffff1660e01b81526004016105c89190610912565b600060405180830381600087803b1580156105e257600080fd5b505af11580156105f6573d6000803e3d6000fd5b5050505061068b565b60008054906101000a900473ffffffffffffffffffffffffffffffffffffffff1673ffffffffffffffffffffffffffffffffffffffff16634326ee36846040518263ffffffff1660e01b81526004016106589190610912565b600060405180830381600087803b15801561067257600080fd5b505af1158015610686573d6000803e3d6000fd5b505050505b505050565b610699336103f8565b6106a257600080fd5b60008054906101000a900473ffffffffffffffffffffffffffffffffffffffff1673ffffffffffffffffffffffffffffffffffffffff166391b7f5ed826040518263ffffffff1660e01b81526004016106fb9190610912565b600060405180830381600087803b15801561071557600080fd5b505af1158015610729573d6000803e3d6000fd5b5050505050565b610739336103f8565b61074257600080fd5b60008054906101000a900473ffffffffffffffffffffffffffffffffffffffff1673ffffffffffffffffffffffffffffffffffffffff1663d0e30db0346040518263ffffffff1660e01b81526004016000604051808303818588803b1580156107aa57600080fd5b505af11580156107be573d6000803e3d6000fd5b5050505050565b60008060009054906101000a900473ffffffffffffffffffffffffffffffffffffffff1673ffffffffffffffffffffffffffffffffffffffff1663f8b2cb4f836040518263ffffffff1660e01b81526004016108219190610a77565b602060405180830381865afa15801561083e573d6000803e3d6000fd5b505050506040513d601f19601f820116820180604052508101906108629190610aa7565b9050919050565b600080fd5b600073ffffffffffffffffffffffffffffffffffffffff82169050919050565b60006108998261086e565b9050919050565b6108a98161088e565b81146108b457600080fd5b50565b6000813590506108c6816108a0565b92915050565b6000602082840312156108e2576108e1610869565b5b60006108f0848285016108b7565b91505092915050565b6000819050919050565b61090c816108f9565b82525050565b60006020820190506109276000830184610903565b92915050565b60008115159050919050565b6109428161092d565b82525050565b600060208201905061095d6000830184610939565b92915050565b61096c816108f9565b811461097757600080fd5b50565b60008135905061098981610963565b92915050565b600080604083850312156109a6576109a5610869565b5b60006109b4858286016108b7565b92505060206109c58582860161097a565b9150509250929050565b6109d88161092d565b81146109e357600080fd5b50565b6000813590506109f5816109cf565b92915050565b60008060408385031215610a1257610a11610869565b5b6000610a208582860161097a565b9250506020610a31858286016109e6565b9150509250929050565b600060208284031215610a5157610a50610869565b5b6000610a5f8482850161097a565b91505092915050565b610a718161088e565b82525050565b6000602082019050610a8c6000830184610a68565b92915050565b600081519050610aa181610963565b92915050565b600060208284031215610abd57610abc610869565b5b6000610acb84828501610a92565b91505092915050565b600082825260208201905092915050565b7f54657374204e616d650000000000000000000000000000000000000000000000600082015250565b6000610b1b600983610ad4565b9150610b2682610ae5565b602082019050919050565b6000819050919050565b6000819050919050565b6000610b60610b5b610b5684610b31565b610b3b565b6108f9565b9050919050565b610b7081610b45565b82525050565b60006040820190508181036000830152610b8f81610b0e565b9050610b9e6020830184610b67565b92915050565b600081519050610bb3816109cf565b92915050565b600060208284031215610bcf57610bce610869565b5b6000610bdd84828501610ba4565b9150509291505056fea26469706673582212208e0bf991ff1b91a60a5295a2ed09348e783bcc92dea818899bb81d77d48b462e64736f6c63430008130033",
  "immutableReferences": {},
  "source": "// SPDX-License-Identifier: MIT\npragma solidity ^0.8.0;\n\nimport \"./P2P.sol\";\n\ncontract Main {\n    P2P private p2pContract;\n\n    modifier onlyRegistered() {\n        require(isRegistered(msg.sender));\n        _;\n    }\n\n    modifier onlyOnce() {\n        require(!isRegistered(msg.sender));\n        _;\n    }\n\n    modifier hasSufficientBalanceModifier(uint amount) {\n        require(hasSufficientBalance(msg.sender, amount));\n        _;\n    }\n\n    constructor(address _p2pContractAddress) {\n        p2pContract = P2P(_p2pContractAddress);\n    }\n\n    function isRegistered(address prosumer) public view returns (bool) {\n        return p2pContract.isProsumerRegistered(prosumer);\n    }\n\n    function hasSufficientBalance(address prosumer, uint amount) public view returns (bool) {\n        return p2pContract.getBalance(prosumer) >= amount;\n    }\n\n    function registerProsumer() public onlyOnce {\n        p2pContract.registerProsumer(\"Test Name\", 0);\n    }\n\n    function depositEthers() public payable onlyRegistered {\n        p2pContract.deposit{value: msg.value}();\n    }\n\n    function sendEnergyRequest(\n        uint amount,\n        bool isBuyer\n    ) public onlyRegistered hasSufficientBalanceModifier(amount) {\n        if (isBuyer) {\n            p2pContract.buyEnergy(amount);\n        } else {\n            p2pContract.sellEnergy(amount);\n        }\n    }\n\n    function getEnergyStatus(address prosumer) public view returns (uint) {\n        return p2pContract.getEnergyStatus(prosumer);\n    }\n\n    function getBalance(address prosumer) public view returns (uint) {\n        return p2pContract.getBalance(prosumer);\n    }\n\n    function withdrawEthers() public onlyRegistered {\n        require(getEnergyStatus(msg.sender) >= 0);\n        p2pContract.withdraw();\n    }\n\n    function setEnergyPrice(uint256 price) public onlyRegistered {\n        p2pContract.setPrice(price);\n    }\n}\n",
  "sourcePath": "/home/prithvi/ws/testContracts/contracts/Main.sol",
  "compiler": {
    "name": "solc",
    "version": "0.8.19+commit.7dd6d404.Emscripten.clang"
  },
  "schemaVersion": "3.4.13",
  "updatedAt": "2023-05-01T18:29:40.955Z",
  "devdoc": {
    "kind": "dev",
    "methods": {},
    "version": 1
  },
  "userdoc": {
    "kind": "user",
    "methods": {},
    "version": 1
  }
}