{
  "contractName": "Main",
  "abi": [
    {
      "inputs": [
        {
          "internalType": "address",
          "name": "_p2pContractAddress",
          "type": "address"
        }
      ],
      "stateMutability": "nonpayable",
      "type": "constructor"
    },
    {
      "inputs": [
        {
          "internalType": "address",
          "name": "prosumer",
          "type": "address"
        }
      ],
      "name": "isRegistered",
      "outputs": [
        {
          "internalType": "bool",
          "name": "",
          "type": "bool"
        }
      ],
      "stateMutability": "view",
      "type": "function"
    },
    {
      "inputs": [
        {
          "internalType": "address",
          "name": "prosumer",
          "type": "address"
        },
        {
          "internalType": "uint256",
          "name": "amount",
          "type": "uint256"
        }
      ],
      "name": "hasSufficientBalance",
      "outputs": [
        {
          "internalType": "bool",
          "name": "",
          "type": "bool"
        }
      ],
      "stateMutability": "view",
      "type": "function"
    },
    {
      "inputs": [
        {
          "internalType": "string",
          "name": "_name",
          "type": "string"
        },
        {
          "internalType": "uint256",
          "name": "_energyStatus",
          "type": "uint256"
        }
      ],
      "name": "registerProsumer",
      "outputs": [],
      "stateMutability": "nonpayable",
      "type": "function"
    },
    {
      "inputs": [],
      "name": "depositEthers",
      "outputs": [],
      "stateMutability": "payable",
      "type": "function"
    },
    {
      "inputs": [
        {
          "internalType": "uint256",
          "name": "amount",
          "type": "uint256"
        },
        {
          "internalType": "bool",
          "name": "isBuyer",
          "type": "bool"
        }
      ],
      "name": "sendEnergyRequest",
      "outputs": [],
      "stateMutability": "payable",
      "type": "function"
    },
    {
      "inputs": [
        {
          "internalType": "address",
          "name": "prosumer",
          "type": "address"
        }
      ],
      "name": "getEnergyStatus",
      "outputs": [
        {
          "internalType": "uint256",
          "name": "",
          "type": "uint256"
        }
      ],
      "stateMutability": "view",
      "type": "function"
    },
    {
      "inputs": [
        {
          "internalType": "address",
          "name": "prosumer",
          "type": "address"
        }
      ],
      "name": "getBalance",
      "outputs": [
        {
          "internalType": "uint256",
          "name": "",
          "type": "uint256"
        }
      ],
      "stateMutability": "view",
      "type": "function"
    },
    {
      "inputs": [],
      "name": "withdrawEthers",
      "outputs": [],
      "stateMutability": "payable",
      "type": "function"
    },
    {
      "inputs": [
        {
          "internalType": "uint256",
          "name": "price",
          "type": "uint256"
        }
      ],
      "name": "setEnergyPrice",
      "outputs": [],
      "stateMutability": "nonpayable",
      "type": "function"
    }
  ],
  "bytecode": "0x608060405234801561001057600080fd5b50604051610ebf380380610ebf833981810160405281019061003291906100db565b806000806101000a81548173ffffffffffffffffffffffffffffffffffffffff021916908373ffffffffffffffffffffffffffffffffffffffff16021790555050610108565b600080fd5b600073ffffffffffffffffffffffffffffffffffffffff82169050919050565b60006100a88261007d565b9050919050565b6100b88161009d565b81146100c357600080fd5b50565b6000815190506100d5816100af565b92915050565b6000602082840312156100f1576100f0610078565b5b60006100ff848285016100c6565b91505092915050565b610da8806101176000396000f3fe6080604052600436106100865760003560e01c8063d5395d2b11610059578063d5395d2b14610138578063de453fe714610175578063ecc18f9914610191578063f477a6b7146101ba578063f8b2cb4f146101c457610086565b8063687e6f441461008b5780636cccde6714610095578063744a753d146100d2578063c3c5a547146100fb575b600080fd5b610093610201565b005b3480156100a157600080fd5b506100bc60048036038101906100b791906108d7565b6102ab565b6040516100c9919061091d565b60405180910390f35b3480156100de57600080fd5b506100f960048036038101906100f49190610aaa565b61034f565b005b34801561010757600080fd5b50610122600480360381019061011d91906108d7565b6103f3565b60405161012f9190610b21565b60405180910390f35b34801561014457600080fd5b5061015f600480360381019061015a9190610b3c565b610497565b60405161016c9190610b21565b60405180910390f35b61018f600480360381019061018a9190610ba8565b61053e565b005b34801561019d57600080fd5b506101b860048036038101906101b39190610be8565b61068c565b005b6101c261072c565b005b3480156101d057600080fd5b506101eb60048036038101906101e691906108d7565b6107c1565b6040516101f8919061091d565b60405180910390f35b61020a336103f3565b61021357600080fd5b600061021e336102ab565b101561022957600080fd5b60008054906101000a900473ffffffffffffffffffffffffffffffffffffffff1673ffffffffffffffffffffffffffffffffffffffff16633ccfd60b6040518163ffffffff1660e01b8152600401600060405180830381600087803b15801561029157600080fd5b505af11580156102a5573d6000803e3d6000fd5b50505050565b60008060009054906101000a900473ffffffffffffffffffffffffffffffffffffffff1673ffffffffffffffffffffffffffffffffffffffff16636cccde67836040518263ffffffff1660e01b81526004016103079190610c24565b602060405180830381865afa158015610324573d6000803e3d6000fd5b505050506040513d601f19601f820116820180604052508101906103489190610c54565b9050919050565b610358336103f3565b1561036257600080fd5b60008054906101000a900473ffffffffffffffffffffffffffffffffffffffff1673ffffffffffffffffffffffffffffffffffffffff1663744a753d83836040518363ffffffff1660e01b81526004016103bd929190610d00565b600060405180830381600087803b1580156103d757600080fd5b505af11580156103eb573d6000803e3d6000fd5b505050505050565b60008060009054906101000a900473ffffffffffffffffffffffffffffffffffffffff1673ffffffffffffffffffffffffffffffffffffffff166329de4d78836040518263ffffffff1660e01b815260040161044f9190610c24565b602060405180830381865afa15801561046c573d6000803e3d6000fd5b505050506040513d601f19601f820116820180604052508101906104909190610d45565b9050919050565b60008160008054906101000a900473ffffffffffffffffffffffffffffffffffffffff1673ffffffffffffffffffffffffffffffffffffffff1663f8b2cb4f856040518263ffffffff1660e01b81526004016104f39190610c24565b602060405180830381865afa158015610510573d6000803e3d6000fd5b505050506040513d601f19601f820116820180604052508101906105349190610c54565b1015905092915050565b610547336103f3565b61055057600080fd5b8161055b3382610497565b61056457600080fd5b81156105fb5760008054906101000a900473ffffffffffffffffffffffffffffffffffffffff1673ffffffffffffffffffffffffffffffffffffffff1663bc8a251f34856040518363ffffffff1660e01b81526004016105c4919061091d565b6000604051808303818588803b1580156105dd57600080fd5b505af11580156105f1573d6000803e3d6000fd5b5050505050610687565b60008054906101000a900473ffffffffffffffffffffffffffffffffffffffff1673ffffffffffffffffffffffffffffffffffffffff16634326ee36846040518263ffffffff1660e01b8152600401610654919061091d565b600060405180830381600087803b15801561066e57600080fd5b505af1158015610682573d6000803e3d6000fd5b505050505b505050565b610695336103f3565b61069e57600080fd5b60008054906101000a900473ffffffffffffffffffffffffffffffffffffffff1673ffffffffffffffffffffffffffffffffffffffff166391b7f5ed826040518263ffffffff1660e01b81526004016106f7919061091d565b600060405180830381600087803b15801561071157600080fd5b505af1158015610725573d6000803e3d6000fd5b5050505050565b610735336103f3565b61073e57600080fd5b60008054906101000a900473ffffffffffffffffffffffffffffffffffffffff1673ffffffffffffffffffffffffffffffffffffffff1663d0e30db0346040518263ffffffff1660e01b81526004016000604051808303818588803b1580156107a657600080fd5b505af11580156107ba573d6000803e3d6000fd5b5050505050565b60008060009054906101000a900473ffffffffffffffffffffffffffffffffffffffff1673ffffffffffffffffffffffffffffffffffffffff1663f8b2cb4f836040518263ffffffff1660e01b815260040161081d9190610c24565b602060405180830381865afa15801561083a573d6000803e3d6000fd5b505050506040513d601f19601f8201168201806040525081019061085e9190610c54565b9050919050565b6000604051905090565b600080fd5b600080fd5b600073ffffffffffffffffffffffffffffffffffffffff82169050919050565b60006108a482610879565b9050919050565b6108b481610899565b81146108bf57600080fd5b50565b6000813590506108d1816108ab565b92915050565b6000602082840312156108ed576108ec61086f565b5b60006108fb848285016108c2565b91505092915050565b6000819050919050565b61091781610904565b82525050565b6000602082019050610932600083018461090e565b92915050565b600080fd5b600080fd5b6000601f19601f8301169050919050565b7f4e487b7100000000000000000000000000000000000000000000000000000000600052604160045260246000fd5b61098b82610942565b810181811067ffffffffffffffff821117156109aa576109a9610953565b5b80604052505050565b60006109bd610865565b90506109c98282610982565b919050565b600067ffffffffffffffff8211156109e9576109e8610953565b5b6109f282610942565b9050602081019050919050565b82818337600083830152505050565b6000610a21610a1c846109ce565b6109b3565b905082815260208101848484011115610a3d57610a3c61093d565b5b610a488482856109ff565b509392505050565b600082601f830112610a6557610a64610938565b5b8135610a75848260208601610a0e565b91505092915050565b610a8781610904565b8114610a9257600080fd5b50565b600081359050610aa481610a7e565b92915050565b60008060408385031215610ac157610ac061086f565b5b600083013567ffffffffffffffff811115610adf57610ade610874565b5b610aeb85828601610a50565b9250506020610afc85828601610a95565b9150509250929050565b60008115159050919050565b610b1b81610b06565b82525050565b6000602082019050610b366000830184610b12565b92915050565b60008060408385031215610b5357610b5261086f565b5b6000610b61858286016108c2565b9250506020610b7285828601610a95565b9150509250929050565b610b8581610b06565b8114610b9057600080fd5b50565b600081359050610ba281610b7c565b92915050565b60008060408385031215610bbf57610bbe61086f565b5b6000610bcd85828601610a95565b9250506020610bde85828601610b93565b9150509250929050565b600060208284031215610bfe57610bfd61086f565b5b6000610c0c84828501610a95565b91505092915050565b610c1e81610899565b82525050565b6000602082019050610c396000830184610c15565b92915050565b600081519050610c4e81610a7e565b92915050565b600060208284031215610c6a57610c6961086f565b5b6000610c7884828501610c3f565b91505092915050565b600081519050919050565b600082825260208201905092915050565b60005b83811015610cbb578082015181840152602081019050610ca0565b60008484015250505050565b6000610cd282610c81565b610cdc8185610c8c565b9350610cec818560208601610c9d565b610cf581610942565b840191505092915050565b60006040820190508181036000830152610d1a8185610cc7565b9050610d29602083018461090e565b9392505050565b600081519050610d3f81610b7c565b92915050565b600060208284031215610d5b57610d5a61086f565b5b6000610d6984828501610d30565b9150509291505056fea26469706673582212200b13b3969d0e0f9d4982cd522cbf7961da13ce69f72dd5c559f5ed3de706fd6064736f6c63430008130033",
  "immutableReferences": {},
  "source": "// SPDX-License-Identifier: MIT\npragma solidity <=0.8.19;\n\nimport \"./P2P.sol\";\n\ncontract Main {\n    P2P private p2pContract;\n\n    modifier onlyRegistered() {\n        require(isRegistered(msg.sender));\n        _;\n    }\n\n    modifier onlyOnce() {\n        require(!isRegistered(msg.sender));\n        _;\n    }\n\n    modifier hasSufficientBalanceModifier(uint amount) {\n        require(hasSufficientBalance(msg.sender, amount));\n        _;\n    }\n\n    constructor(address _p2pContractAddress) {\n        p2pContract = P2P(_p2pContractAddress);\n    }\n\n    function isRegistered(address prosumer) public view returns (bool) {\n        return p2pContract.isProsumerRegistered(prosumer);\n    }\n\n    function hasSufficientBalance(\n        address prosumer,\n        uint amount\n    ) public view returns (bool) {\n        return p2pContract.getBalance(prosumer) >= amount;\n    }\n\n    function registerProsumer(string memory _name, uint _energyStatus) public onlyOnce {\n        p2pContract.registerProsumer(_name, _energyStatus);\n    }\n\n    function depositEthers() public payable onlyRegistered {\n        p2pContract.deposit{value: msg.value}();\n    }\n\n    function sendEnergyRequest(\n        uint amount,\n        bool isBuyer\n    ) public payable onlyRegistered hasSufficientBalanceModifier(amount) {\n        if (isBuyer) {\n            p2pContract.buyEnergy{value: msg.value}(amount);\n        } else {\n            p2pContract.sellEnergy(amount);\n        }\n    }\n\n    function getEnergyStatus(address prosumer) public view returns (uint) {\n        return p2pContract.getEnergyStatus(prosumer);\n    }\n\n    function getBalance(address prosumer) public view returns (uint) {\n        return p2pContract.getBalance(prosumer);\n    } \n\n    function withdrawEthers() public payable onlyRegistered {\n        require(getEnergyStatus(msg.sender) >= 0);\n        p2pContract.withdraw();\n    }\n\n    function setEnergyPrice(uint256 price) public onlyRegistered {\n        p2pContract.setPrice(price);\n    }\n}\n",
  "sourcePath": "/home/prithvi/ws/Blockchain-P2P-Energy-Trading/contracts/Main.sol",
  "compiler": {
    "name": "solc",
    "version": "0.8.19+commit.7dd6d404.Emscripten.clang"
  },
  "schemaVersion": "3.4.13",
  "updatedAt": "2023-05-03T13:39:54.606Z",
  "devdoc": {
    "kind": "dev",
    "methods": {},
    "version": 1
  },
  "userdoc": {
    "kind": "user",
    "methods": {},
    "version": 1
  }
}