{
  "contractName": "P2P",
  "abi": [
    {
      "anonymous": false,
      "inputs": [
        {
          "indexed": true,
          "internalType": "address",
          "name": "sender",
          "type": "address"
        },
        {
          "indexed": false,
          "internalType": "uint256",
          "name": "amount",
          "type": "uint256"
        }
      ],
      "name": "Deposited",
      "type": "event"
    },
    {
      "anonymous": false,
      "inputs": [
        {
          "indexed": true,
          "internalType": "address",
          "name": "buyer",
          "type": "address"
        },
        {
          "indexed": true,
          "internalType": "address",
          "name": "seller",
          "type": "address"
        },
        {
          "indexed": false,
          "internalType": "uint256",
          "name": "amount",
          "type": "uint256"
        },
        {
          "indexed": false,
          "internalType": "uint256",
          "name": "price",
          "type": "uint256"
        }
      ],
      "name": "EnergyTraded",
      "type": "event"
    },
    {
      "anonymous": false,
      "inputs": [
        {
          "indexed": true,
          "internalType": "address",
          "name": "sender",
          "type": "address"
        },
        {
          "indexed": false,
          "internalType": "uint256",
          "name": "amount",
          "type": "uint256"
        }
      ],
      "name": "EnergyWithdrawn",
      "type": "event"
    },
    {
      "anonymous": false,
      "inputs": [
        {
          "indexed": true,
          "internalType": "address",
          "name": "prosumer",
          "type": "address"
        },
        {
          "indexed": false,
          "internalType": "string",
          "name": "name",
          "type": "string"
        },
        {
          "indexed": false,
          "internalType": "uint256",
          "name": "energyStatus",
          "type": "uint256"
        },
        {
          "indexed": false,
          "internalType": "uint256",
          "name": "balance",
          "type": "uint256"
        }
      ],
      "name": "ProsumerRegistered",
      "type": "event"
    },
    {
      "inputs": [
        {
          "internalType": "uint256",
          "name": "",
          "type": "uint256"
        }
      ],
      "name": "buyers",
      "outputs": [
        {
          "internalType": "address",
          "name": "",
          "type": "address"
        }
      ],
      "stateMutability": "view",
      "type": "function"
    },
    {
      "inputs": [],
      "name": "contractBalance",
      "outputs": [
        {
          "internalType": "uint256",
          "name": "",
          "type": "uint256"
        }
      ],
      "stateMutability": "view",
      "type": "function"
    },
    {
      "inputs": [
        {
          "internalType": "uint256",
          "name": "",
          "type": "uint256"
        }
      ],
      "name": "sellers",
      "outputs": [
        {
          "internalType": "address",
          "name": "",
          "type": "address"
        }
      ],
      "stateMutability": "view",
      "type": "function"
    },
    {
      "inputs": [
        {
          "internalType": "uint256",
          "name": "newPrice",
          "type": "uint256"
        }
      ],
      "name": "setPrice",
      "outputs": [],
      "stateMutability": "nonpayable",
      "type": "function"
    },
    {
      "inputs": [
        {
          "internalType": "string",
          "name": "name",
          "type": "string"
        },
        {
          "internalType": "uint256",
          "name": "energyStatus",
          "type": "uint256"
        }
      ],
      "name": "registerProsumer",
      "outputs": [],
      "stateMutability": "nonpayable",
      "type": "function"
    },
    {
      "inputs": [
        {
          "internalType": "uint256",
          "name": "amount",
          "type": "uint256"
        }
      ],
      "name": "buyEnergy",
      "outputs": [],
      "stateMutability": "payable",
      "type": "function"
    },
    {
      "inputs": [
        {
          "internalType": "uint256",
          "name": "amount",
          "type": "uint256"
        }
      ],
      "name": "sellEnergy",
      "outputs": [],
      "stateMutability": "payable",
      "type": "function"
    },
    {
      "inputs": [
        {
          "internalType": "address",
          "name": "prosumer",
          "type": "address"
        }
      ],
      "name": "getEnergyStatus",
      "outputs": [
        {
          "internalType": "uint256",
          "name": "",
          "type": "uint256"
        }
      ],
      "stateMutability": "view",
      "type": "function"
    },
    {
      "inputs": [
        {
          "internalType": "address",
          "name": "prosumer",
          "type": "address"
        }
      ],
      "name": "getBalance",
      "outputs": [
        {
          "internalType": "uint256",
          "name": "",
          "type": "uint256"
        }
      ],
      "stateMutability": "view",
      "type": "function"
    },
    {
      "inputs": [
        {
          "internalType": "address",
          "name": "prosumer",
          "type": "address"
        }
      ],
      "name": "getReward",
      "outputs": [
        {
          "internalType": "uint256",
          "name": "",
          "type": "uint256"
        }
      ],
      "stateMutability": "view",
      "type": "function"
    },
    {
      "inputs": [
        {
          "internalType": "address",
          "name": "prosumer",
          "type": "address"
        }
      ],
      "name": "isProsumerRegistered",
      "outputs": [
        {
          "internalType": "bool",
          "name": "",
          "type": "bool"
        }
      ],
      "stateMutability": "view",
      "type": "function"
    },
    {
      "inputs": [],
      "name": "deposit",
      "outputs": [],
      "stateMutability": "payable",
      "type": "function"
    },
    {
      "inputs": [],
      "name": "withdraw",
      "outputs": [],
      "stateMutability": "payable",
      "type": "function"
    }
  ],
  "bytecode": "0x6080604052633b9aca0060035534801561001857600080fd5b50611918806100286000396000f3fe6080604052600436106100c25760003560e01c806391b7f5ed1161007f578063cee26ed511610059578063cee26ed51461023d578063d0e30db01461027a578063f2aa821814610284578063f8b2cb4f146102c1576100c2565b806391b7f5ed146101bb578063bc8a251f146101e4578063c00007b014610200576100c2565b806329de4d78146100c75780633ccfd60b146101045780634326ee361461010e5780636cccde671461012a578063744a753d146101675780638b7afe2e14610190575b600080fd5b3480156100d357600080fd5b506100ee60048036038101906100e99190610fbc565b6102fe565b6040516100fb9190611004565b60405180910390f35b61010c610357565b005b61012860048036038101906101239190611055565b6104e9565b005b34801561013657600080fd5b50610151600480360381019061014c9190610fbc565b610672565b60405161015e9190611091565b60405180910390f35b34801561017357600080fd5b5061018e600480360381019061018991906111f2565b6106bd565b005b34801561019c57600080fd5b506101a56108f7565b6040516101b29190611091565b60405180910390f35b3480156101c757600080fd5b506101e260048036038101906101dd9190611055565b6108fd565b005b6101fe60048036038101906101f99190611055565b610914565b005b34801561020c57600080fd5b5061022760048036038101906102229190610fbc565b610bc7565b6040516102349190611091565b60405180910390f35b34801561024957600080fd5b50610264600480360381019061025f9190611055565b610c12565b604051610271919061125d565b60405180910390f35b610282610c51565b005b34801561029057600080fd5b506102ab60048036038101906102a69190611055565b610d15565b6040516102b8919061125d565b60405180910390f35b3480156102cd57600080fd5b506102e860048036038101906102e39190610fbc565b610d54565b6040516102f59190611091565b60405180910390f35b6000806000808473ffffffffffffffffffffffffffffffffffffffff1673ffffffffffffffffffffffffffffffffffffffff168152602001908152602001600020600001805461034d906112a7565b9050119050919050565b600061036233610672565b101561036d57600080fd5b6000339050600061037d82610672565b90506004548111156103905750506104e7565b6000803373ffffffffffffffffffffffffffffffffffffffff1673ffffffffffffffffffffffffffffffffffffffff168152602001908152602001600020600201548111156103de57600080fd5b8173ffffffffffffffffffffffffffffffffffffffff166108fc829081150290604051600060405180830381858888f19350505050158015610424573d6000803e3d6000fd5b5080600460008282546104379190611307565b92505081905550806000803373ffffffffffffffffffffffffffffffffffffffff1673ffffffffffffffffffffffffffffffffffffffff168152602001908152602001600020600201600082825461048f9190611307565b925050819055503373ffffffffffffffffffffffffffffffffffffffff167f3e191f34827057ae7a024d0827da720a2f1b54e6955366eb13e7e12493a9f8a3826040516104dc9190611091565b60405180910390a250505b565b600081116104f657600080fd5b60008060003373ffffffffffffffffffffffffffffffffffffffff1673ffffffffffffffffffffffffffffffffffffffff1681526020019081526020016000209050600115158160050160009054906101000a900460ff1615151461055a57600080fd5b818160020154101561056b57600080fd5b8181600201600082825461057f9190611307565b9250508190555081600354610594919061133b565b8160030160008282546105a7919061137d565b9250508190555060c8826003546105be919061133b565b6105c891906113e0565b8160040160008282546105db919061137d565b925050819055503373ffffffffffffffffffffffffffffffffffffffff168160010160009054906101000a900473ffffffffffffffffffffffffffffffffffffffff1673ffffffffffffffffffffffffffffffffffffffff167fece4328707e290d84e6f37c8af0d6f5c250570b849d6ac1aaaca14c0b278e986846000604051610666929190611456565b60405180910390a35050565b60008060008373ffffffffffffffffffffffffffffffffffffffff1673ffffffffffffffffffffffffffffffffffffffff168152602001908152602001600020600201549050919050565b60008251116106cb57600080fd5b60008110156106d957600080fd5b60008060003373ffffffffffffffffffffffffffffffffffffffff1673ffffffffffffffffffffffffffffffffffffffff16815260200190815260200160002090508281600001908161072c919061162c565b50338160010160006101000a81548173ffffffffffffffffffffffffffffffffffffffff021916908373ffffffffffffffffffffffffffffffffffffffff1602179055508181600201819055506000816003018190555060008160040181905550600082111561081b5760018160050160006101000a81548160ff0219169083151502179055506001339080600181540180825580915050600190039060005260206000200160009091909190916101000a81548173ffffffffffffffffffffffffffffffffffffffff021916908373ffffffffffffffffffffffffffffffffffffffff16021790555061089c565b60018160050160016101000a81548160ff0219169083151502179055506002339080600181540180825580915050600190039060005260206000200160009091909190916101000a81548173ffffffffffffffffffffffffffffffffffffffff021916908373ffffffffffffffffffffffffffffffffffffffff1602179055505b3373ffffffffffffffffffffffffffffffffffffffff167f4cd50ee87da65eb9649e669a411162f43ca866d1d56aaa5f1cc89e18270b63e4848484600301546040516108ea93929190611772565b60405180910390a2505050565b60045481565b6000811161090a57600080fd5b8060038190555050565b60006003541161092357600080fd5b6000811161093057600080fd5b60008060003373ffffffffffffffffffffffffffffffffffffffff1673ffffffffffffffffffffffffffffffffffffffff1681526020019081526020016000209050600115158160050160019054906101000a900460ff1615151461099457600080fd5b81816002015410156109a557600080fd5b816003546109b3919061133b565b816003015410156109c357600080fd5b60006109ce83610d9f565b905060008060008373ffffffffffffffffffffffffffffffffffffffff1673ffffffffffffffffffffffffffffffffffffffff1681526020019081526020016000209050600115158160050160009054906101000a900460ff16151514610a3457600080fd5b8381600201541015610a4557600080fd5b83836002016000828254610a599190611307565b9250508190555083816002016000828254610a74919061137d565b9250508190555083600354610a89919061133b565b836003016000828254610a9c9190611307565b9250508190555083600354610ab1919061133b565b816003016000828254610ac4919061137d565b925050819055506103e884600354610adc919061133b565b610ae691906113e0565b836004016000828254610af9919061137d565b9250508190555060c884600354610b10919061133b565b610b1a91906113e0565b816004016000828254610b2d919061137d565b925050819055508060010160009054906101000a900473ffffffffffffffffffffffffffffffffffffffff1673ffffffffffffffffffffffffffffffffffffffff163373ffffffffffffffffffffffffffffffffffffffff167fece4328707e290d84e6f37c8af0d6f5c250570b849d6ac1aaaca14c0b278e98686600354604051610bb99291906117b0565b60405180910390a350505050565b60008060008373ffffffffffffffffffffffffffffffffffffffff1673ffffffffffffffffffffffffffffffffffffffff168152602001908152602001600020600401549050919050565b60018181548110610c2257600080fd5b906000526020600020016000915054906101000a900473ffffffffffffffffffffffffffffffffffffffff1681565b60003411610c5e57600080fd5b3460046000828254610c70919061137d565b9250508190555060008060003373ffffffffffffffffffffffffffffffffffffffff1673ffffffffffffffffffffffffffffffffffffffff168152602001908152602001600020905060045481600301819055503373ffffffffffffffffffffffffffffffffffffffff167f2da466a7b24304f47e87fa2e1e5a81b9831ce54fec19055ce277ca2f39ba42c434604051610d0a9190611091565b60405180910390a250565b60028181548110610d2557600080fd5b906000526020600020016000915054906101000a900473ffffffffffffffffffffffffffffffffffffffff1681565b60008060008373ffffffffffffffffffffffffffffffffffffffff1673ffffffffffffffffffffffffffffffffffffffff168152602001908152602001600020600301549050919050565b60008060007fffffffffffffffffffffffffffffffffffffffffffffffffffffffffffffffff905060005b600180549050811015610ed057600080600060018481548110610df057610def6117d9565b5b9060005260206000200160009054906101000a900473ffffffffffffffffffffffffffffffffffffffff1673ffffffffffffffffffffffffffffffffffffffff1673ffffffffffffffffffffffffffffffffffffffff168152602001908152602001600020905085816002015410158015610e6e5750828160030154105b15610ebc5760018281548110610e8757610e866117d9565b5b9060005260206000200160009054906101000a900473ffffffffffffffffffffffffffffffffffffffff169350806003015492505b508080610ec890611808565b915050610dca565b50600073ffffffffffffffffffffffffffffffffffffffff168273ffffffffffffffffffffffffffffffffffffffff1603610f40576040517f08c379a0000000000000000000000000000000000000000000000000000000008152600401610f37906118c2565b60405180910390fd5b8192505050919050565b6000604051905090565b600080fd5b600080fd5b600073ffffffffffffffffffffffffffffffffffffffff82169050919050565b6000610f8982610f5e565b9050919050565b610f9981610f7e565b8114610fa457600080fd5b50565b600081359050610fb681610f90565b92915050565b600060208284031215610fd257610fd1610f54565b5b6000610fe084828501610fa7565b91505092915050565b60008115159050919050565b610ffe81610fe9565b82525050565b60006020820190506110196000830184610ff5565b92915050565b6000819050919050565b6110328161101f565b811461103d57600080fd5b50565b60008135905061104f81611029565b92915050565b60006020828403121561106b5761106a610f54565b5b600061107984828501611040565b91505092915050565b61108b8161101f565b82525050565b60006020820190506110a66000830184611082565b92915050565b600080fd5b600080fd5b6000601f19601f8301169050919050565b7f4e487b7100000000000000000000000000000000000000000000000000000000600052604160045260246000fd5b6110ff826110b6565b810181811067ffffffffffffffff8211171561111e5761111d6110c7565b5b80604052505050565b6000611131610f4a565b905061113d82826110f6565b919050565b600067ffffffffffffffff82111561115d5761115c6110c7565b5b611166826110b6565b9050602081019050919050565b82818337600083830152505050565b600061119561119084611142565b611127565b9050828152602081018484840111156111b1576111b06110b1565b5b6111bc848285611173565b509392505050565b600082601f8301126111d9576111d86110ac565b5b81356111e9848260208601611182565b91505092915050565b6000806040838503121561120957611208610f54565b5b600083013567ffffffffffffffff81111561122757611226610f59565b5b611233858286016111c4565b925050602061124485828601611040565b9150509250929050565b61125781610f7e565b82525050565b6000602082019050611272600083018461124e565b92915050565b7f4e487b7100000000000000000000000000000000000000000000000000000000600052602260045260246000fd5b600060028204905060018216806112bf57607f821691505b6020821081036112d2576112d1611278565b5b50919050565b7f4e487b7100000000000000000000000000000000000000000000000000000000600052601160045260246000fd5b60006113128261101f565b915061131d8361101f565b9250828203905081811115611335576113346112d8565b5b92915050565b60006113468261101f565b91506113518361101f565b925082820261135f8161101f565b91508282048414831517611376576113756112d8565b5b5092915050565b60006113888261101f565b91506113938361101f565b92508282019050808211156113ab576113aa6112d8565b5b92915050565b7f4e487b7100000000000000000000000000000000000000000000000000000000600052601260045260246000fd5b60006113eb8261101f565b91506113f68361101f565b925082611406576114056113b1565b5b828204905092915050565b6000819050919050565b6000819050919050565b600061144061143b61143684611411565b61141b565b61101f565b9050919050565b61145081611425565b82525050565b600060408201905061146b6000830185611082565b6114786020830184611447565b9392505050565b600081519050919050565b60008190508160005260206000209050919050565b60006020601f8301049050919050565b600082821b905092915050565b6000600883026114ec7fffffffffffffffffffffffffffffffffffffffffffffffffffffffffffffffff826114af565b6114f686836114af565b95508019841693508086168417925050509392505050565b600061152961152461151f8461101f565b61141b565b61101f565b9050919050565b6000819050919050565b6115438361150e565b61155761154f82611530565b8484546114bc565b825550505050565b600090565b61156c61155f565b61157781848461153a565b505050565b5b8181101561159b57611590600082611564565b60018101905061157d565b5050565b601f8211156115e0576115b18161148a565b6115ba8461149f565b810160208510156115c9578190505b6115dd6115d58561149f565b83018261157c565b50505b505050565b600082821c905092915050565b6000611603600019846008026115e5565b1980831691505092915050565b600061161c83836115f2565b9150826002028217905092915050565b6116358261147f565b67ffffffffffffffff81111561164e5761164d6110c7565b5b61165882546112a7565b61166382828561159f565b600060209050601f8311600181146116965760008415611684578287015190505b61168e8582611610565b8655506116f6565b601f1984166116a48661148a565b60005b828110156116cc578489015182556001820191506020850194506020810190506116a7565b868310156116e957848901516116e5601f8916826115f2565b8355505b6001600288020188555050505b505050505050565b600082825260208201905092915050565b60005b8381101561172d578082015181840152602081019050611712565b60008484015250505050565b60006117448261147f565b61174e81856116fe565b935061175e81856020860161170f565b611767816110b6565b840191505092915050565b6000606082019050818103600083015261178c8186611739565b905061179b6020830185611082565b6117a86040830184611082565b949350505050565b60006040820190506117c56000830185611082565b6117d26020830184611082565b9392505050565b7f4e487b7100000000000000000000000000000000000000000000000000000000600052603260045260246000fd5b60006118138261101f565b91507fffffffffffffffffffffffffffffffffffffffffffffffffffffffffffffffff8203611845576118446112d8565b5b600182019050919050565b7f4e6f2073656c6c65727320617661696c61626c6520666f72207468652072657160008201527f75657374656420616d6f756e7400000000000000000000000000000000000000602082015250565b60006118ac602d836116fe565b91506118b782611850565b604082019050919050565b600060208201905081810360008301526118db8161189f565b905091905056fea26469706673582212206e3bd9ae48e4399561ce08422f11263235fb9bbc2c341ff576e8d98a0c57a55464736f6c63430008130033",
  "immutableReferences": {},
  "source": "// SPDX-License-Identifier: MIT\npragma solidity <=0.8.19;\n\ncontract P2P {\n    struct Prosumer {\n        string name;\n        address id;\n        uint energyStatus;\n        uint balance;\n        uint reward;\n        bool isSeller;\n        bool isBuyer;\n    }\n\n    mapping(address => Prosumer) prosumers;\n\n    address[] public sellers;\n    address[] public buyers;\n\n    event ProsumerRegistered(\n        address indexed prosumer,\n        string name,\n        uint energyStatus,\n        uint balance\n    );\n    event EnergyTraded(\n        address indexed buyer,\n        address indexed seller,\n        uint amount,\n        uint price\n    );\n    event EnergyWithdrawn(address indexed sender, uint amount);\n    event Deposited(address indexed sender, uint amount);\n\n    uint256 private price = 1 gwei;\n    uint256 public contractBalance;\n\n    function setPrice(uint256 newPrice) public {\n        require(newPrice > 0);\n        price = newPrice;\n    }\n\n    function registerProsumer(string memory name, uint256 energyStatus) public {\n        require(bytes(name).length > 0);\n        require(energyStatus >= 0);\n\n        Prosumer storage newProsumer = prosumers[msg.sender];\n        newProsumer.name = name;\n        newProsumer.id = msg.sender;\n        newProsumer.energyStatus = energyStatus;\n        newProsumer.balance = 0;\n        newProsumer.reward = 0;\n\n        if (energyStatus > 0) {\n            // Prosumer is a seller\n            newProsumer.isSeller = true;\n            sellers.push(msg.sender);\n        } else {\n            // Prosumer is a buyer\n            newProsumer.isBuyer = true;\n            buyers.push(msg.sender);\n        }\n\n        emit ProsumerRegistered(\n            msg.sender,\n            name,\n            energyStatus,\n            newProsumer.balance\n        );\n    }\n\n    function buyEnergy(uint amount) public payable {\n        require(price > 0);\n        require(amount > 0);\n\n        Prosumer storage buyer = prosumers[msg.sender];\n        require(buyer.isBuyer == true);\n        require(buyer.energyStatus >= amount);\n        require(buyer.balance >= price * amount);\n\n        address payable sellerAddress = getBestSeller(amount);\n        Prosumer storage seller = prosumers[sellerAddress];\n        require(seller.isSeller == true);\n        require(seller.energyStatus >= amount);\n\n        buyer.energyStatus -= amount;\n        seller.energyStatus += amount;\n        buyer.balance -= price * amount;\n        seller.balance += price * amount;\n\n        // Reward the buyer and seller\n\n        buyer.reward += (price * amount) / 1000;\n        seller.reward += (price * amount) / 200;\n\n        emit EnergyTraded(msg.sender, seller.id, amount, price);\n    }\n\n    function sellEnergy(uint amount) public payable {\n        require(amount > 0);\n\n        Prosumer storage seller = prosumers[msg.sender];\n        require(seller.isSeller == true);\n        require(seller.energyStatus >= amount);\n\n        seller.energyStatus -= amount;\n        seller.balance += price * amount;\n        seller.reward += (price * amount) / 200;\n\n        emit EnergyTraded(seller.id, msg.sender, amount, 0);\n    }\n\n    function getEnergyStatus(address prosumer) public view returns (uint) {\n        return prosumers[prosumer].energyStatus;\n    }\n\n    function getBalance(address prosumer) public view returns (uint) {\n        return prosumers[prosumer].balance;\n    }\n\n    function getReward(address prosumer) public view returns (uint) {\n        return prosumers[prosumer].reward;\n    }\n\n    function isProsumerRegistered(address prosumer) public view returns (bool) {\n        return bytes(prosumers[prosumer].name).length > 0;\n    }\n\n    function deposit() public payable {\n        require(msg.value > 0);\n        contractBalance += msg.value;\n        Prosumer storage newProsumer = prosumers[msg.sender];\n        newProsumer.balance = contractBalance;\n        emit Deposited(msg.sender, msg.value);\n    }\n\n    function withdraw() public payable {\n        require(getEnergyStatus(msg.sender) >= 0);\n\n        address payable sender = payable(msg.sender);\n        uint amount = getEnergyStatus(sender);\n\n        if (amount > contractBalance) {\n            // Not enough energy in the contract to withdraw.\n            return;\n        }\n\n        require(amount <= prosumers[msg.sender].energyStatus);\n\n        sender.transfer(amount);\n        contractBalance -= amount;\n        prosumers[msg.sender].energyStatus -= amount;\n\n        emit EnergyWithdrawn(msg.sender, amount);\n    }\n\n    function getBestSeller(uint amount) private view returns (address payable) {\n        address payable bestSeller;\n        uint256 lowestPrice = type(uint256).max;\n\n        for (uint256 i = 0; i < sellers.length; i++) {\n            Prosumer storage seller = prosumers[sellers[i]];\n            if (seller.energyStatus >= amount && seller.balance < lowestPrice) {\n                bestSeller = payable(sellers[i]);\n                lowestPrice = seller.balance;\n            }\n        }\n\n        require(\n            bestSeller != address(0),\n            \"No sellers available for the requested amount\"\n        );\n        return bestSeller;\n    }\n}\n",
  "sourcePath": "/home/prithvi/ws/Blockchain-P2P-Energy-Trading/contracts/P2P.sol",
  "compiler": {
    "name": "solc",
    "version": "0.8.19+commit.7dd6d404.Emscripten.clang"
  },
  "schemaVersion": "3.4.13",
  "updatedAt": "2023-05-03T13:39:54.609Z",
  "devdoc": {
    "kind": "dev",
    "methods": {},
    "version": 1
  },
  "userdoc": {
    "kind": "user",
    "methods": {},
    "version": 1
  }
}