{
  "contractName": "P2P",
  "abi": [
    {
      "anonymous": false,
      "inputs": [
        {
          "indexed": true,
          "internalType": "address",
          "name": "sender",
          "type": "address"
        },
        {
          "indexed": false,
          "internalType": "uint256",
          "name": "amount",
          "type": "uint256"
        }
      ],
      "name": "Deposited",
      "type": "event"
    },
    {
      "anonymous": false,
      "inputs": [
        {
          "indexed": true,
          "internalType": "address",
          "name": "buyer",
          "type": "address"
        },
        {
          "indexed": true,
          "internalType": "address",
          "name": "seller",
          "type": "address"
        },
        {
          "indexed": false,
          "internalType": "uint256",
          "name": "amount",
          "type": "uint256"
        },
        {
          "indexed": false,
          "internalType": "uint256",
          "name": "price",
          "type": "uint256"
        }
      ],
      "name": "EnergyTraded",
      "type": "event"
    },
    {
      "anonymous": false,
      "inputs": [
        {
          "indexed": true,
          "internalType": "address",
          "name": "sender",
          "type": "address"
        },
        {
          "indexed": false,
          "internalType": "uint256",
          "name": "amount",
          "type": "uint256"
        }
      ],
      "name": "EnergyWithdrawn",
      "type": "event"
    },
    {
      "anonymous": false,
      "inputs": [
        {
          "indexed": true,
          "internalType": "address",
          "name": "prosumer",
          "type": "address"
        },
        {
          "indexed": false,
          "internalType": "string",
          "name": "name",
          "type": "string"
        },
        {
          "indexed": false,
          "internalType": "uint256",
          "name": "energyStatus",
          "type": "uint256"
        },
        {
          "indexed": false,
          "internalType": "uint256",
          "name": "balance",
          "type": "uint256"
        }
      ],
      "name": "ProsumerRegistered",
      "type": "event"
    },
    {
      "inputs": [],
      "name": "contractBalance",
      "outputs": [
        {
          "internalType": "uint256",
          "name": "",
          "type": "uint256"
        }
      ],
      "stateMutability": "view",
      "type": "function"
    },
    {
      "inputs": [
        {
          "internalType": "uint256",
          "name": "newPrice",
          "type": "uint256"
        }
      ],
      "name": "setPrice",
      "outputs": [],
      "stateMutability": "nonpayable",
      "type": "function"
    },
    {
      "inputs": [
        {
          "internalType": "string",
          "name": "name",
          "type": "string"
        },
        {
          "internalType": "uint256",
          "name": "energyStatus",
          "type": "uint256"
        }
      ],
      "name": "registerProsumer",
      "outputs": [],
      "stateMutability": "nonpayable",
      "type": "function"
    },
    {
      "inputs": [
        {
          "internalType": "uint256",
          "name": "amount",
          "type": "uint256"
        }
      ],
      "name": "buyEnergy",
      "outputs": [],
      "stateMutability": "payable",
      "type": "function"
    },
    {
      "inputs": [
        {
          "internalType": "uint256",
          "name": "amount",
          "type": "uint256"
        }
      ],
      "name": "sellEnergy",
      "outputs": [],
      "stateMutability": "nonpayable",
      "type": "function"
    },
    {
      "inputs": [
        {
          "internalType": "address",
          "name": "prosumer",
          "type": "address"
        }
      ],
      "name": "getEnergyStatus",
      "outputs": [
        {
          "internalType": "uint256",
          "name": "",
          "type": "uint256"
        }
      ],
      "stateMutability": "view",
      "type": "function"
    },
    {
      "inputs": [
        {
          "internalType": "address",
          "name": "prosumer",
          "type": "address"
        }
      ],
      "name": "getBalance",
      "outputs": [
        {
          "internalType": "uint256",
          "name": "",
          "type": "uint256"
        }
      ],
      "stateMutability": "view",
      "type": "function"
    },
    {
      "inputs": [
        {
          "internalType": "address",
          "name": "prosumer",
          "type": "address"
        }
      ],
      "name": "getReward",
      "outputs": [
        {
          "internalType": "uint256",
          "name": "",
          "type": "uint256"
        }
      ],
      "stateMutability": "view",
      "type": "function"
    },
    {
      "inputs": [
        {
          "internalType": "address",
          "name": "prosumer",
          "type": "address"
        }
      ],
      "name": "isProsumerRegistered",
      "outputs": [
        {
          "internalType": "bool",
          "name": "",
          "type": "bool"
        }
      ],
      "stateMutability": "view",
      "type": "function"
    },
    {
      "inputs": [],
      "name": "deposit",
      "outputs": [],
      "stateMutability": "payable",
      "type": "function"
    },
    {
      "inputs": [],
      "name": "withdraw",
      "outputs": [],
      "stateMutability": "nonpayable",
      "type": "function"
    }
  ],
  "bytecode": "0x60806040526001805534801561001457600080fd5b50611389806100246000396000f3fe60806040526004361061009c5760003560e01c80638b7afe2e116100645780638b7afe2e1461018457806391b7f5ed146101af578063bc8a251f146101d8578063c00007b0146101f4578063d0e30db014610231578063f8b2cb4f1461023b5761009c565b806329de4d78146100a15780633ccfd60b146100de5780634326ee36146100f55780636cccde671461011e578063744a753d1461015b575b600080fd5b3480156100ad57600080fd5b506100c860048036038101906100c39190610b60565b610278565b6040516100d59190610ba8565b60405180910390f35b3480156100ea57600080fd5b506100f36102d1565b005b34801561010157600080fd5b5061011c60048036038101906101179190610bf9565b610463565b005b34801561012a57600080fd5b5061014560048036038101906101409190610b60565b6105ca565b6040516101529190610c35565b60405180910390f35b34801561016757600080fd5b50610182600480360381019061017d9190610d96565b610615565b005b34801561019057600080fd5b50610199610740565b6040516101a69190610c35565b60405180910390f35b3480156101bb57600080fd5b506101d660048036038101906101d19190610bf9565b610746565b005b6101f260048036038101906101ed9190610bf9565b61075d565b005b34801561020057600080fd5b5061021b60048036038101906102169190610b60565b6109e2565b6040516102289190610c35565b60405180910390f35b610239610a2d565b005b34801561024757600080fd5b50610262600480360381019061025d9190610b60565b610aa3565b60405161026f9190610c35565b60405180910390f35b6000806000808473ffffffffffffffffffffffffffffffffffffffff1673ffffffffffffffffffffffffffffffffffffffff16815260200190815260200160002060000180546102c790610e21565b9050119050919050565b60006102dc336105ca565b10156102e757600080fd5b600033905060006102f7826105ca565b905060025481111561030a575050610461565b6000803373ffffffffffffffffffffffffffffffffffffffff1673ffffffffffffffffffffffffffffffffffffffff1681526020019081526020016000206002015481111561035857600080fd5b8173ffffffffffffffffffffffffffffffffffffffff166108fc829081150290604051600060405180830381858888f1935050505015801561039e573d6000803e3d6000fd5b5080600260008282546103b19190610e81565b92505081905550806000803373ffffffffffffffffffffffffffffffffffffffff1673ffffffffffffffffffffffffffffffffffffffff16815260200190815260200160002060020160008282546104099190610e81565b925050819055503373ffffffffffffffffffffffffffffffffffffffff167f3e191f34827057ae7a024d0827da720a2f1b54e6955366eb13e7e12493a9f8a3826040516104569190610c35565b60405180910390a250505b565b6000811161047057600080fd5b60008060003373ffffffffffffffffffffffffffffffffffffffff1673ffffffffffffffffffffffffffffffffffffffff168152602001908152602001600020905081816002015410156104c357600080fd5b818160020160008282546104d79190610e81565b92505081905550816001546104ec9190610eb5565b8160030160008282546104ff9190610ef7565b9250508190555060c8826001546105169190610eb5565b6105209190610f5a565b8160040160008282546105339190610ef7565b925050819055503373ffffffffffffffffffffffffffffffffffffffff168160010160009054906101000a900473ffffffffffffffffffffffffffffffffffffffff1673ffffffffffffffffffffffffffffffffffffffff167fece4328707e290d84e6f37c8af0d6f5c250570b849d6ac1aaaca14c0b278e9868460006040516105be929190610fd0565b60405180910390a35050565b60008060008373ffffffffffffffffffffffffffffffffffffffff1673ffffffffffffffffffffffffffffffffffffffff168152602001908152602001600020600201549050919050565b600082511161062357600080fd5b600081101561063157600080fd5b60008060003373ffffffffffffffffffffffffffffffffffffffff1673ffffffffffffffffffffffffffffffffffffffff16815260200190815260200160002090508281600001908161068491906111a6565b50338160010160006101000a81548173ffffffffffffffffffffffffffffffffffffffff021916908373ffffffffffffffffffffffffffffffffffffffff16021790555081816002018190555060008160030181905550600081600401819055503373ffffffffffffffffffffffffffffffffffffffff167f4cd50ee87da65eb9649e669a411162f43ca866d1d56aaa5f1cc89e18270b63e484848460030154604051610733939291906112ec565b60405180910390a2505050565b60025481565b6000811161075357600080fd5b8060018190555050565b60006001541161076c57600080fd5b6000811161077957600080fd5b60008060003373ffffffffffffffffffffffffffffffffffffffff1673ffffffffffffffffffffffffffffffffffffffff168152602001908152602001600020905081816002015410156107cc57600080fd5b816001546107da9190610eb5565b816003015410156107ea57600080fd5b60008060008360010160009054906101000a900473ffffffffffffffffffffffffffffffffffffffff1673ffffffffffffffffffffffffffffffffffffffff1673ffffffffffffffffffffffffffffffffffffffff1681526020019081526020016000209050828160020154101561086157600080fd5b828260020160008282546108759190610e81565b92505081905550828160020160008282546108909190610ef7565b92505081905550826001546108a59190610eb5565b8260030160008282546108b89190610e81565b92505081905550826001546108cd9190610eb5565b8160030160008282546108e09190610ef7565b925050819055506103e8836001546108f89190610eb5565b6109029190610f5a565b8260040160008282546109159190610ef7565b9250508190555060c88360015461092c9190610eb5565b6109369190610f5a565b8160040160008282546109499190610ef7565b925050819055508060010160009054906101000a900473ffffffffffffffffffffffffffffffffffffffff1673ffffffffffffffffffffffffffffffffffffffff163373ffffffffffffffffffffffffffffffffffffffff167fece4328707e290d84e6f37c8af0d6f5c250570b849d6ac1aaaca14c0b278e986856001546040516109d592919061132a565b60405180910390a3505050565b60008060008373ffffffffffffffffffffffffffffffffffffffff1673ffffffffffffffffffffffffffffffffffffffff168152602001908152602001600020600401549050919050565b60003411610a3a57600080fd5b3460026000828254610a4c9190610ef7565b925050819055503373ffffffffffffffffffffffffffffffffffffffff167f2da466a7b24304f47e87fa2e1e5a81b9831ce54fec19055ce277ca2f39ba42c434604051610a999190610c35565b60405180910390a2565b60008060008373ffffffffffffffffffffffffffffffffffffffff1673ffffffffffffffffffffffffffffffffffffffff168152602001908152602001600020600301549050919050565b6000604051905090565b600080fd5b600080fd5b600073ffffffffffffffffffffffffffffffffffffffff82169050919050565b6000610b2d82610b02565b9050919050565b610b3d81610b22565b8114610b4857600080fd5b50565b600081359050610b5a81610b34565b92915050565b600060208284031215610b7657610b75610af8565b5b6000610b8484828501610b4b565b91505092915050565b60008115159050919050565b610ba281610b8d565b82525050565b6000602082019050610bbd6000830184610b99565b92915050565b6000819050919050565b610bd681610bc3565b8114610be157600080fd5b50565b600081359050610bf381610bcd565b92915050565b600060208284031215610c0f57610c0e610af8565b5b6000610c1d84828501610be4565b91505092915050565b610c2f81610bc3565b82525050565b6000602082019050610c4a6000830184610c26565b92915050565b600080fd5b600080fd5b6000601f19601f8301169050919050565b7f4e487b7100000000000000000000000000000000000000000000000000000000600052604160045260246000fd5b610ca382610c5a565b810181811067ffffffffffffffff82111715610cc257610cc1610c6b565b5b80604052505050565b6000610cd5610aee565b9050610ce18282610c9a565b919050565b600067ffffffffffffffff821115610d0157610d00610c6b565b5b610d0a82610c5a565b9050602081019050919050565b82818337600083830152505050565b6000610d39610d3484610ce6565b610ccb565b905082815260208101848484011115610d5557610d54610c55565b5b610d60848285610d17565b509392505050565b600082601f830112610d7d57610d7c610c50565b5b8135610d8d848260208601610d26565b91505092915050565b60008060408385031215610dad57610dac610af8565b5b600083013567ffffffffffffffff811115610dcb57610dca610afd565b5b610dd785828601610d68565b9250506020610de885828601610be4565b9150509250929050565b7f4e487b7100000000000000000000000000000000000000000000000000000000600052602260045260246000fd5b60006002820490506001821680610e3957607f821691505b602082108103610e4c57610e4b610df2565b5b50919050565b7f4e487b7100000000000000000000000000000000000000000000000000000000600052601160045260246000fd5b6000610e8c82610bc3565b9150610e9783610bc3565b9250828203905081811115610eaf57610eae610e52565b5b92915050565b6000610ec082610bc3565b9150610ecb83610bc3565b9250828202610ed981610bc3565b91508282048414831517610ef057610eef610e52565b5b5092915050565b6000610f0282610bc3565b9150610f0d83610bc3565b9250828201905080821115610f2557610f24610e52565b5b92915050565b7f4e487b7100000000000000000000000000000000000000000000000000000000600052601260045260246000fd5b6000610f6582610bc3565b9150610f7083610bc3565b925082610f8057610f7f610f2b565b5b828204905092915050565b6000819050919050565b6000819050919050565b6000610fba610fb5610fb084610f8b565b610f95565b610bc3565b9050919050565b610fca81610f9f565b82525050565b6000604082019050610fe56000830185610c26565b610ff26020830184610fc1565b9392505050565b600081519050919050565b60008190508160005260206000209050919050565b60006020601f8301049050919050565b600082821b905092915050565b6000600883026110667fffffffffffffffffffffffffffffffffffffffffffffffffffffffffffffffff82611029565b6110708683611029565b95508019841693508086168417925050509392505050565b60006110a361109e61109984610bc3565b610f95565b610bc3565b9050919050565b6000819050919050565b6110bd83611088565b6110d16110c9826110aa565b848454611036565b825550505050565b600090565b6110e66110d9565b6110f18184846110b4565b505050565b5b818110156111155761110a6000826110de565b6001810190506110f7565b5050565b601f82111561115a5761112b81611004565b61113484611019565b81016020851015611143578190505b61115761114f85611019565b8301826110f6565b50505b505050565b600082821c905092915050565b600061117d6000198460080261115f565b1980831691505092915050565b6000611196838361116c565b9150826002028217905092915050565b6111af82610ff9565b67ffffffffffffffff8111156111c8576111c7610c6b565b5b6111d28254610e21565b6111dd828285611119565b600060209050601f83116001811461121057600084156111fe578287015190505b611208858261118a565b865550611270565b601f19841661121e86611004565b60005b8281101561124657848901518255600182019150602085019450602081019050611221565b86831015611263578489015161125f601f89168261116c565b8355505b6001600288020188555050505b505050505050565b600082825260208201905092915050565b60005b838110156112a757808201518184015260208101905061128c565b60008484015250505050565b60006112be82610ff9565b6112c88185611278565b93506112d8818560208601611289565b6112e181610c5a565b840191505092915050565b6000606082019050818103600083015261130681866112b3565b90506113156020830185610c26565b6113226040830184610c26565b949350505050565b600060408201905061133f6000830185610c26565b61134c6020830184610c26565b939250505056fea2646970667358221220737fe3c8047563a3e9162a5f7e3d4a59119357aded6a113035d54300a2b015f464736f6c63430008130033",
  "immutableReferences": {},
  "source": "// SPDX-License-Identifier: MIT\npragma solidity 0.8.19;\n\ncontract P2P {\n    struct Prosumer {\n        string name;\n        address id;\n        uint energyStatus;\n        uint balance;\n        uint reward;\n    }\n\n    mapping(address => Prosumer) prosumers;\n\n    event ProsumerRegistered(\n        address indexed prosumer,\n        string name,\n        uint energyStatus,\n        uint balance\n    );\n    event EnergyTraded(\n        address indexed buyer,\n        address indexed seller,\n        uint amount,\n        uint price\n    );\n    event EnergyWithdrawn(address indexed sender, uint amount);\n    event Deposited(address indexed sender, uint amount);\n\n    uint256 private price = 1;\n    uint256 public contractBalance;\n\n    function setPrice(uint256 newPrice) public {\n        require(newPrice > 0);\n        price = newPrice;\n    }\n\n    function registerProsumer(string memory name, uint256 energyStatus) public {\n        require(bytes(name).length > 0);\n        require(energyStatus >= 0);\n\n        Prosumer storage newProsumer = prosumers[msg.sender];\n        newProsumer.name = name;\n        newProsumer.id = msg.sender;\n        newProsumer.energyStatus = energyStatus;\n        newProsumer.balance = 0;\n        newProsumer.reward = 0;\n\n        emit ProsumerRegistered(\n            msg.sender,\n            name,\n            energyStatus,\n            newProsumer.balance\n        );\n    }\n\n    function buyEnergy(uint amount) public payable {\n        require(price > 0);\n        require(amount > 0);\n\n        Prosumer storage buyer = prosumers[msg.sender];\n        require(buyer.energyStatus >= amount);\n        require(buyer.balance >= price * amount);\n\n        Prosumer storage seller = prosumers[buyer.id];\n        require(seller.energyStatus >= amount);\n\n        buyer.energyStatus -= amount;\n        seller.energyStatus += amount;\n        buyer.balance -= price * amount;\n        seller.balance += price * amount;\n\n        // Reward the buyer and seller\n        buyer.reward += (price * amount) / 1000;\n        seller.reward += (price * amount) / 200;\n\n        emit EnergyTraded(msg.sender, seller.id, amount, price);\n    }\n\n    function sellEnergy(uint amount) public {\n        require(amount > 0);\n\n        Prosumer storage seller = prosumers[msg.sender];\n        require(seller.energyStatus >= amount);\n\n        seller.energyStatus -= amount;\n        seller.balance += price * amount;\n        seller.reward += (price * amount) / 200;\n\n        emit EnergyTraded(seller.id, msg.sender, amount, 0);\n    }\n\n    function getEnergyStatus(address prosumer) public view returns (uint) {\n        return prosumers[prosumer].energyStatus;\n    }\n\n    function getBalance(address prosumer) public view returns (uint) {\n        return prosumers[prosumer].balance;\n    }\n\n    function getReward(address prosumer) public view returns (uint) {\n        return prosumers[prosumer].reward;\n    }\n\n    function isProsumerRegistered(address prosumer) public view returns (bool) {\n        return bytes(prosumers[prosumer].name).length > 0;\n    }\n\n    function deposit() public payable {\n        require(msg.value > 0);\n        contractBalance += msg.value;\n        emit Deposited(msg.sender, msg.value);\n    }\n\n    function withdraw() public {\n        require(getEnergyStatus(msg.sender) >= 0);\n\n        address payable sender = payable(msg.sender);\n        uint amount = getEnergyStatus(sender);\n\n        if (amount > contractBalance) {\n            // Not enough energy in the contract to withdraw.\n            return;\n        }\n\n        require(amount <= prosumers[msg.sender].energyStatus);\n\n        sender.transfer(amount);\n        contractBalance -= amount;\n        prosumers[msg.sender].energyStatus -= amount;\n\n        emit EnergyWithdrawn(msg.sender, amount);\n    }\n}\n",
  "sourcePath": "/home/prithvi/ws/testContracts/contracts/P2P.sol",
  "compiler": {
    "name": "solc",
    "version": "0.8.19+commit.7dd6d404.Emscripten.clang"
  },
  "schemaVersion": "3.4.13",
  "updatedAt": "2023-05-02T18:32:40.192Z",
  "devdoc": {
    "kind": "dev",
    "methods": {},
    "version": 1
  },
  "userdoc": {
    "kind": "user",
    "methods": {},
    "version": 1
  }
}