{
  "contractName": "P2P",
  "abi": [
    {
      "anonymous": false,
      "inputs": [
        {
          "indexed": true,
          "internalType": "address",
          "name": "sender",
          "type": "address"
        },
        {
          "indexed": false,
          "internalType": "uint256",
          "name": "amount",
          "type": "uint256"
        }
      ],
      "name": "Deposited",
      "type": "event"
    },
    {
      "anonymous": false,
      "inputs": [
        {
          "indexed": true,
          "internalType": "address",
          "name": "buyer",
          "type": "address"
        },
        {
          "indexed": true,
          "internalType": "address",
          "name": "seller",
          "type": "address"
        },
        {
          "indexed": false,
          "internalType": "uint256",
          "name": "amount",
          "type": "uint256"
        },
        {
          "indexed": false,
          "internalType": "uint256",
          "name": "price",
          "type": "uint256"
        }
      ],
      "name": "EnergyTraded",
      "type": "event"
    },
    {
      "anonymous": false,
      "inputs": [
        {
          "indexed": true,
          "internalType": "address",
          "name": "prosumer",
          "type": "address"
        },
        {
          "indexed": false,
          "internalType": "string",
          "name": "name",
          "type": "string"
        },
        {
          "indexed": false,
          "internalType": "uint256",
          "name": "energyStatus",
          "type": "uint256"
        },
        {
          "indexed": false,
          "internalType": "uint256",
          "name": "balance",
          "type": "uint256"
        }
      ],
      "name": "ProsumerRegistered",
      "type": "event"
    },
    {
      "inputs": [],
      "name": "contractBalance",
      "outputs": [
        {
          "internalType": "uint256",
          "name": "",
          "type": "uint256"
        }
      ],
      "stateMutability": "view",
      "type": "function"
    },
    {
      "inputs": [
        {
          "internalType": "uint256",
          "name": "newPrice",
          "type": "uint256"
        }
      ],
      "name": "setPrice",
      "outputs": [],
      "stateMutability": "nonpayable",
      "type": "function"
    },
    {
      "inputs": [
        {
          "internalType": "string",
          "name": "name",
          "type": "string"
        },
        {
          "internalType": "uint256",
          "name": "energyStatus",
          "type": "uint256"
        }
      ],
      "name": "registerProsumer",
      "outputs": [],
      "stateMutability": "nonpayable",
      "type": "function"
    },
    {
      "inputs": [
        {
          "internalType": "uint256",
          "name": "amount",
          "type": "uint256"
        }
      ],
      "name": "buyEnergy",
      "outputs": [],
      "stateMutability": "payable",
      "type": "function"
    },
    {
      "inputs": [
        {
          "internalType": "uint256",
          "name": "amount",
          "type": "uint256"
        }
      ],
      "name": "sellEnergy",
      "outputs": [],
      "stateMutability": "nonpayable",
      "type": "function"
    },
    {
      "inputs": [
        {
          "internalType": "address",
          "name": "prosumer",
          "type": "address"
        }
      ],
      "name": "getEnergyStatus",
      "outputs": [
        {
          "internalType": "uint256",
          "name": "",
          "type": "uint256"
        }
      ],
      "stateMutability": "view",
      "type": "function"
    },
    {
      "inputs": [
        {
          "internalType": "address",
          "name": "prosumer",
          "type": "address"
        }
      ],
      "name": "getBalance",
      "outputs": [
        {
          "internalType": "uint256",
          "name": "",
          "type": "uint256"
        }
      ],
      "stateMutability": "view",
      "type": "function"
    },
    {
      "inputs": [
        {
          "internalType": "address",
          "name": "prosumer",
          "type": "address"
        }
      ],
      "name": "getReward",
      "outputs": [
        {
          "internalType": "uint256",
          "name": "",
          "type": "uint256"
        }
      ],
      "stateMutability": "view",
      "type": "function"
    },
    {
      "inputs": [
        {
          "internalType": "address",
          "name": "prosumer",
          "type": "address"
        }
      ],
      "name": "isProsumerRegistered",
      "outputs": [
        {
          "internalType": "bool",
          "name": "",
          "type": "bool"
        }
      ],
      "stateMutability": "view",
      "type": "function"
    },
    {
      "inputs": [],
      "name": "deposit",
      "outputs": [],
      "stateMutability": "payable",
      "type": "function"
    },
    {
      "inputs": [],
      "name": "withdraw",
      "outputs": [],
      "stateMutability": "nonpayable",
      "type": "function"
    }
  ],
  "bytecode": "0x608060405234801561001057600080fd5b50611465806100206000396000f3fe60806040526004361061009c5760003560e01c80638b7afe2e116100645780638b7afe2e1461018457806391b7f5ed146101af578063bc8a251f146101d8578063c00007b0146101f4578063d0e30db014610231578063f8b2cb4f1461023b5761009c565b806329de4d78146100a15780633ccfd60b146100de5780634326ee36146100f55780636cccde671461011e578063744a753d1461015b575b600080fd5b3480156100ad57600080fd5b506100c860048036038101906100c39190610bc8565b610278565b6040516100d59190610c10565b60405180910390f35b3480156100ea57600080fd5b506100f36102d1565b005b34801561010157600080fd5b5061011c60048036038101906101179190610c61565b610400565b005b34801561012a57600080fd5b5061014560048036038101906101409190610bc8565b610573565b6040516101529190610c9d565b60405180910390f35b34801561016757600080fd5b50610182600480360381019061017d9190610dfe565b610606565b005b34801561019057600080fd5b50610199610731565b6040516101a69190610c9d565b60405180910390f35b3480156101bb57600080fd5b506101d660048036038101906101d19190610c61565b610737565b005b6101f260048036038101906101ed9190610c61565b610741565b005b34801561020057600080fd5b5061021b60048036038101906102169190610bc8565b6109ba565b6040516102289190610c9d565b60405180910390f35b610239610a4d565b005b34801561024757600080fd5b50610262600480360381019061025d9190610bc8565b610ac3565b60405161026f9190610c9d565b60405180910390f35b6000806000808473ffffffffffffffffffffffffffffffffffffffff1673ffffffffffffffffffffffffffffffffffffffff16815260200190815260200160002060000180546102c790610e89565b9050119050919050565b6102da33610278565b610319576040517f08c379a000000000000000000000000000000000000000000000000000000000815260040161031090610f17565b60405180910390fd5b60008060003373ffffffffffffffffffffffffffffffffffffffff1673ffffffffffffffffffffffffffffffffffffffff168152602001908152602001600020905060008160030154116103a2576040517f08c379a000000000000000000000000000000000000000000000000000000000815260040161039990610f83565b60405180910390fd5b600081600301549050600082600301819055503373ffffffffffffffffffffffffffffffffffffffff166108fc829081150290604051600060405180830381858888f193505050501580156103fb573d6000803e3d6000fd5b505050565b6000811161040d57600080fd5b60008060003373ffffffffffffffffffffffffffffffffffffffff1673ffffffffffffffffffffffffffffffffffffffff1681526020019081526020016000209050818160020154101561046057600080fd5b818160020160008282546104749190610fd2565b92505081905550816001546104899190611006565b81600301600082825461049c9190611048565b925050819055506064826001546104b39190611006565b6104bd91906110ab565b8160040160008282546104d09190611048565b925050819055503373ffffffffffffffffffffffffffffffffffffffff168160010160009054906101000a900473ffffffffffffffffffffffffffffffffffffffff1673ffffffffffffffffffffffffffffffffffffffff167fece4328707e290d84e6f37c8af0d6f5c250570b849d6ac1aaaca14c0b278e98684856001546105599190611006565b6040516105679291906110dc565b60405180910390a35050565b600061057e82610278565b6105bd576040517f08c379a00000000000000000000000000000000000000000000000000000000081526004016105b490610f17565b60405180910390fd5b6000808373ffffffffffffffffffffffffffffffffffffffff1673ffffffffffffffffffffffffffffffffffffffff168152602001908152602001600020600201549050919050565b600082511161061457600080fd5b600081101561062257600080fd5b60008060003373ffffffffffffffffffffffffffffffffffffffff1673ffffffffffffffffffffffffffffffffffffffff16815260200190815260200160002090508281600001908161067591906112bc565b50338160010160006101000a81548173ffffffffffffffffffffffffffffffffffffffff021916908373ffffffffffffffffffffffffffffffffffffffff16021790555081816002018190555060008160030181905550600081600401819055503373ffffffffffffffffffffffffffffffffffffffff167f4cd50ee87da65eb9649e669a411162f43ca866d1d56aaa5f1cc89e18270b63e484848460030154604051610724939291906113f1565b60405180910390a2505050565b60025481565b8060018190555050565b60006001541161075057600080fd5b6000811161075d57600080fd5b8060015461076b9190611006565b341461077657600080fd5b60008060003373ffffffffffffffffffffffffffffffffffffffff1673ffffffffffffffffffffffffffffffffffffffff168152602001908152602001600020905081816002015410156107c957600080fd5b816001546107d79190611006565b4710156107e357600080fd5b60008060008360010160009054906101000a900473ffffffffffffffffffffffffffffffffffffffff1673ffffffffffffffffffffffffffffffffffffffff1673ffffffffffffffffffffffffffffffffffffffff1681526020019081526020016000209050828160020154101561085a57600080fd5b8282600201600082825461086e9190610fd2565b92505081905550828160020160008282546108899190611048565b92505081905550348260030160008282546108a49190611048565b92505081905550826001546108b99190611006565b8160030160008282546108cc9190611048565b9250508190555060006064846001546108e59190611006565b6108ef91906110ab565b9050808360040160008282546109059190611048565b92505081905550808260040160008282546109209190611048565b925050819055508160010160009054906101000a900473ffffffffffffffffffffffffffffffffffffffff1673ffffffffffffffffffffffffffffffffffffffff163373ffffffffffffffffffffffffffffffffffffffff167fece4328707e290d84e6f37c8af0d6f5c250570b849d6ac1aaaca14c0b278e986866001546040516109ac9291906110dc565b60405180910390a350505050565b60006109c582610278565b610a04576040517f08c379a00000000000000000000000000000000000000000000000000000000081526004016109fb90610f17565b60405180910390fd5b6000808373ffffffffffffffffffffffffffffffffffffffff1673ffffffffffffffffffffffffffffffffffffffff168152602001908152602001600020600401549050919050565b60003411610a5a57600080fd5b3460026000828254610a6c9190611048565b925050819055503373ffffffffffffffffffffffffffffffffffffffff167f2da466a7b24304f47e87fa2e1e5a81b9831ce54fec19055ce277ca2f39ba42c434604051610ab99190610c9d565b60405180910390a2565b6000610ace82610278565b610b0d576040517f08c379a0000000000000000000000000000000000000000000000000000000008152600401610b0490610f17565b60405180910390fd5b6000808373ffffffffffffffffffffffffffffffffffffffff1673ffffffffffffffffffffffffffffffffffffffff168152602001908152602001600020600301549050919050565b6000604051905090565b600080fd5b600080fd5b600073ffffffffffffffffffffffffffffffffffffffff82169050919050565b6000610b9582610b6a565b9050919050565b610ba581610b8a565b8114610bb057600080fd5b50565b600081359050610bc281610b9c565b92915050565b600060208284031215610bde57610bdd610b60565b5b6000610bec84828501610bb3565b91505092915050565b60008115159050919050565b610c0a81610bf5565b82525050565b6000602082019050610c256000830184610c01565b92915050565b6000819050919050565b610c3e81610c2b565b8114610c4957600080fd5b50565b600081359050610c5b81610c35565b92915050565b600060208284031215610c7757610c76610b60565b5b6000610c8584828501610c4c565b91505092915050565b610c9781610c2b565b82525050565b6000602082019050610cb26000830184610c8e565b92915050565b600080fd5b600080fd5b6000601f19601f8301169050919050565b7f4e487b7100000000000000000000000000000000000000000000000000000000600052604160045260246000fd5b610d0b82610cc2565b810181811067ffffffffffffffff82111715610d2a57610d29610cd3565b5b80604052505050565b6000610d3d610b56565b9050610d498282610d02565b919050565b600067ffffffffffffffff821115610d6957610d68610cd3565b5b610d7282610cc2565b9050602081019050919050565b82818337600083830152505050565b6000610da1610d9c84610d4e565b610d33565b905082815260208101848484011115610dbd57610dbc610cbd565b5b610dc8848285610d7f565b509392505050565b600082601f830112610de557610de4610cb8565b5b8135610df5848260208601610d8e565b91505092915050565b60008060408385031215610e1557610e14610b60565b5b600083013567ffffffffffffffff811115610e3357610e32610b65565b5b610e3f85828601610dd0565b9250506020610e5085828601610c4c565b9150509250929050565b7f4e487b7100000000000000000000000000000000000000000000000000000000600052602260045260246000fd5b60006002820490506001821680610ea157607f821691505b602082108103610eb457610eb3610e5a565b5b50919050565b600082825260208201905092915050565b7f50726f73756d6572206973206e6f742072656769737465726564000000000000600082015250565b6000610f01601a83610eba565b9150610f0c82610ecb565b602082019050919050565b60006020820190508181036000830152610f3081610ef4565b9050919050565b7f496e73756666696369656e742062616c616e636520746f207769746864726177600082015250565b6000610f6d602083610eba565b9150610f7882610f37565b602082019050919050565b60006020820190508181036000830152610f9c81610f60565b9050919050565b7f4e487b7100000000000000000000000000000000000000000000000000000000600052601160045260246000fd5b6000610fdd82610c2b565b9150610fe883610c2b565b925082820390508181111561100057610fff610fa3565b5b92915050565b600061101182610c2b565b915061101c83610c2b565b925082820261102a81610c2b565b9150828204841483151761104157611040610fa3565b5b5092915050565b600061105382610c2b565b915061105e83610c2b565b925082820190508082111561107657611075610fa3565b5b92915050565b7f4e487b7100000000000000000000000000000000000000000000000000000000600052601260045260246000fd5b60006110b682610c2b565b91506110c183610c2b565b9250826110d1576110d061107c565b5b828204905092915050565b60006040820190506110f16000830185610c8e565b6110fe6020830184610c8e565b9392505050565b600081519050919050565b60008190508160005260206000209050919050565b60006020601f8301049050919050565b600082821b905092915050565b6000600883026111727fffffffffffffffffffffffffffffffffffffffffffffffffffffffffffffffff82611135565b61117c8683611135565b95508019841693508086168417925050509392505050565b6000819050919050565b60006111b96111b46111af84610c2b565b611194565b610c2b565b9050919050565b6000819050919050565b6111d38361119e565b6111e76111df826111c0565b848454611142565b825550505050565b600090565b6111fc6111ef565b6112078184846111ca565b505050565b5b8181101561122b576112206000826111f4565b60018101905061120d565b5050565b601f8211156112705761124181611110565b61124a84611125565b81016020851015611259578190505b61126d61126585611125565b83018261120c565b50505b505050565b600082821c905092915050565b600061129360001984600802611275565b1980831691505092915050565b60006112ac8383611282565b9150826002028217905092915050565b6112c582611105565b67ffffffffffffffff8111156112de576112dd610cd3565b5b6112e88254610e89565b6112f382828561122f565b600060209050601f8311600181146113265760008415611314578287015190505b61131e85826112a0565b865550611386565b601f19841661133486611110565b60005b8281101561135c57848901518255600182019150602085019450602081019050611337565b868310156113795784890151611375601f891682611282565b8355505b6001600288020188555050505b505050505050565b60005b838110156113ac578082015181840152602081019050611391565b60008484015250505050565b60006113c382611105565b6113cd8185610eba565b93506113dd81856020860161138e565b6113e681610cc2565b840191505092915050565b6000606082019050818103600083015261140b81866113b8565b905061141a6020830185610c8e565b6114276040830184610c8e565b94935050505056fea26469706673582212202377888a1afc0487670ec14c8b3740eeaf2b5bdb9f41482aecfce6f28d0eb82d64736f6c63430008130033",
  "immutableReferences": {},
  "source": "// // SPDX-License-Identifier: MIT\n// pragma solidity ^0.8.19;\n\n// contract P2P {\n//     struct Prosumer {\n//         string name;\n//         address id;\n//         uint energyStatus;\n//         uint balance;\n//         uint reward;\n//     }\n\n//     mapping(address => Prosumer) prosumers;\n\n//     event ProsumerRegistered(\n//         address indexed prosumer,\n//         string name,\n//         uint energyStatus,\n//         uint balance\n//     );\n//     event EnergyTraded(\n//         address indexed buyer,\n//         address indexed seller,\n//         uint amount,\n//         uint price\n//     );\n\n//     uint256 private price;\n\n//     function setPrice(uint256 newPrice) public {\n//         price = newPrice;\n//     }\n\n//     function registerProsumer(string memory name, uint256 energyStatus) public {\n//         require(bytes(name).length > 0);\n//         require(energyStatus >= 0);\n\n//         Prosumer storage newProsumer = prosumers[msg.sender];\n//         newProsumer.name = name;\n//         newProsumer.id = msg.sender;\n//         newProsumer.energyStatus = energyStatus;\n//         newProsumer.balance = 0;\n//         newProsumer.reward = 0;\n\n//         emit ProsumerRegistered(\n//             msg.sender,\n//             name,\n//             energyStatus,\n//             newProsumer.balance\n//         );\n//     }\n\n//     function buyEnergy(uint amount) public payable {\n//         require(price > 0);\n//         require(amount > 0);\n\n//         Prosumer storage buyer = prosumers[msg.sender];\n//         require(buyer.energyStatus >= amount);\n//         require(buyer.balance >= price * amount);\n\n//         Prosumer storage seller = prosumers[buyer.id];\n//         require(seller.energyStatus >= amount);\n\n//         buyer.energyStatus -= amount;\n//         seller.energyStatus += amount;\n//         buyer.balance -= price * amount;\n//         seller.balance += price * amount;\n\n//         // Reward the buyer and seller\n//         buyer.reward += (price * amount) / 100;\n//         seller.reward += (price * amount) / 100;\n\n//         emit EnergyTraded(msg.sender, seller.id, amount, price);\n//     }\n\n//     function sellEnergy(uint amount) public {\n//         require(amount > 0);\n\n//         Prosumer storage seller = prosumers[msg.sender];\n//         require(seller.energyStatus >= amount);\n\n//         seller.energyStatus -= amount;\n//         seller.balance += price * amount;\n//         seller.reward += (price * amount) / 100;\n\n//         emit EnergyTraded(seller.id, msg.sender, amount, 0);\n//     }\n\n//     function getEnergyStatus(address prosumer) public view returns (uint) {\n//         return prosumers[prosumer].energyStatus;\n//     }\n\n//     function getBalance(address prosumer) public view returns (uint) {\n//         return prosumers[prosumer].balance;\n//     }\n\n//     function getReward(address prosumer) public view returns (uint) {\n//         return prosumers[prosumer].reward;\n//     }\n\n//     function isProsumerRegistered(address prosumer) public view returns (bool) {\n//         return bytes(prosumers[prosumer].name).length > 0;\n//     }\n\n//     function deposit() public payable {\n//         require(msg.value > 0);\n\n//         contractBalance += msg.value;\n\n//         emit Deposited(msg.sender, msg.value);\n//     }\n\n//     uint256 public contractBalance;\n//     event Deposited(address indexed sender, uint amount);\n\n//     function withdraw() public {\n//         require(getEnergyStatus(msg.sender) >= 0);\n\n//         address payable sender = payable(msg.sender);\n//         uint amount = getEnergyStatus(sender);\n\n//         sender.transfer(amount);\n//     }\n// }\n\npragma solidity ^0.8.19;\n\ncontract P2P {\n    struct Prosumer {\n        string name;\n        address id;\n        uint energyStatus;\n        uint balance;\n        uint reward;\n    }\n\n    mapping(address => Prosumer) prosumers;\n    uint256 private price;\n\n    event ProsumerRegistered(\n        address indexed prosumer,\n        string name,\n        uint energyStatus,\n        uint balance\n    );\n    \n    event EnergyTraded(\n        address indexed buyer,\n        address indexed seller,\n        uint amount,\n        uint price\n    );\n\n    event Deposited(address indexed sender, uint amount);\n\n    function setPrice(uint256 newPrice) public {\n        price = newPrice;\n    }\n\n    function registerProsumer(string memory name, uint256 energyStatus) public {\n        require(bytes(name).length > 0);\n        require(energyStatus >= 0);\n\n        Prosumer storage newProsumer = prosumers[msg.sender];\n        newProsumer.name = name;\n        newProsumer.id = msg.sender;\n        newProsumer.energyStatus = energyStatus;\n        newProsumer.balance = 0;\n        newProsumer.reward = 0;\n\n        emit ProsumerRegistered(\n            msg.sender,\n            name,\n            energyStatus,\n            newProsumer.balance\n        );\n    }\n\n    function buyEnergy(uint amount) public payable {\n        require(price > 0);\n        require(amount > 0);\n        require(msg.value == price * amount);\n\n        Prosumer storage buyer = prosumers[msg.sender];\n        require(buyer.energyStatus >= amount);\n        require(address(this).balance >= price * amount);\n\n        Prosumer storage seller = prosumers[buyer.id];\n        require(seller.energyStatus >= amount);\n\n        buyer.energyStatus -= amount;\n        seller.energyStatus += amount;\n        buyer.balance += msg.value;\n        seller.balance += (price * amount);\n\n        // Reward the buyer and seller\n        uint256 rewardAmount = (price * amount) / 100;\n        buyer.reward += rewardAmount;\n        seller.reward += rewardAmount;\n\n        emit EnergyTraded(msg.sender, seller.id, amount, price);\n    }\n\n    function sellEnergy(uint amount) public {\n        require(amount > 0);\n\n        Prosumer storage seller = prosumers[msg.sender];\n        require(seller.energyStatus >= amount);\n\n        seller.energyStatus -= amount;\n        seller.balance += (price * amount);\n        seller.reward += (price * amount) / 100;\n\n        emit EnergyTraded(seller.id, msg.sender, amount, price * amount);\n    }\n\n    function getEnergyStatus(address prosumer) public view returns (uint) {\n        require(isProsumerRegistered(prosumer), \"Prosumer is not registered\");\n        return prosumers[prosumer].energyStatus;\n    }\n\n    function getBalance(address prosumer) public view returns (uint) {\n        require(isProsumerRegistered(prosumer), \"Prosumer is not registered\");\n        return prosumers[prosumer].balance;\n    }\n\n    function getReward(address prosumer) public view returns (uint) {\n        require(isProsumerRegistered(prosumer), \"Prosumer is not registered\");\n        return prosumers[prosumer].reward;\n    }\n\n    function isProsumerRegistered(address prosumer) public view returns (bool) {\n        return bytes(prosumers[prosumer].name).length > 0;\n    }\n\n    function deposit() public payable {\n        require(msg.value > 0);\n        contractBalance += msg.value;\n        emit Deposited(msg.sender, msg.value);\n    }\n\n    uint256 public contractBalance;\n\n    function withdraw() public {\n        require(isProsumerRegistered(msg.sender), \"Prosumer is not registered\");\n        Prosumer storage prosumer = prosumers[msg.sender];\n        require(prosumer.balance > 0, \"Insufficient balance to withdraw\");\n        uint256 amount = prosumer.balance;\n        prosumer.balance = 0;\n        payable(msg.sender).transfer(amount);\n    }\n}\n",
  "sourcePath": "/home/prithvi/ws/testContracts/contracts/P2P.sol",
  "compiler": {
    "name": "solc",
    "version": "0.8.19+commit.7dd6d404.Emscripten.clang"
  },
  "schemaVersion": "3.4.13",
  "updatedAt": "2023-05-02T14:55:29.217Z",
  "devdoc": {
    "kind": "dev",
    "methods": {},
    "version": 1
  },
  "userdoc": {
    "kind": "user",
    "methods": {},
    "version": 1
  }
}